:1000000090002F7B4D7A011110DAFCA3DAF9010080
:1000100079007DFE7C08E993F4F5808D907E057F64
:1000200032DFFEDEFA4390FFED23FD09DCE822001B
:10003000000000000000003F4038403F000000008A
:10004000007F4949494100000000007F4040404096
:1000500000000000003E4141412200000000003E3F
:100060004141413E00000000007F020C027F000081
:100070000000007F494949410000000000000000E5
:030080000000007D
:00000001FF
